{
  "contractName": "SimpleCrabGame",
  "abi": [
    {
      "inputs": [
        {
          "internalType": "address",
          "name": "_tokenAddress",
          "type": "address"
        }
      ],
      "stateMutability": "nonpayable",
      "type": "constructor"
    },
    {
      "anonymous": false,
      "inputs": [
        {
          "indexed": true,
          "internalType": "address",
          "name": "owner",
          "type": "address"
        },
        {
          "indexed": true,
          "internalType": "address",
          "name": "approved",
          "type": "address"
        },
        {
          "indexed": true,
          "internalType": "uint256",
          "name": "tokenId",
          "type": "uint256"
        }
      ],
      "name": "Approval",
      "type": "event"
    },
    {
      "anonymous": false,
      "inputs": [
        {
          "indexed": true,
          "internalType": "address",
          "name": "owner",
          "type": "address"
        },
        {
          "indexed": true,
          "internalType": "address",
          "name": "operator",
          "type": "address"
        },
        {
          "indexed": false,
          "internalType": "bool",
          "name": "approved",
          "type": "bool"
        }
      ],
      "name": "ApprovalForAll",
      "type": "event"
    },
    {
      "anonymous": false,
      "inputs": [
        {
          "indexed": true,
          "internalType": "uint256",
          "name": "eventType",
          "type": "uint256"
        },
        {
          "indexed": false,
          "internalType": "uint256",
          "name": "_battleID",
          "type": "uint256"
        },
        {
          "indexed": false,
          "internalType": "uint256",
          "name": "_battleAmount",
          "type": "uint256"
        },
        {
          "indexed": false,
          "internalType": "address",
          "name": "_p1Adress",
          "type": "address"
        },
        {
          "indexed": false,
          "internalType": "uint256",
          "name": "_p1CrabID",
          "type": "uint256"
        },
        {
          "indexed": false,
          "internalType": "address",
          "name": "_p2Adress",
          "type": "address"
        },
        {
          "indexed": false,
          "internalType": "uint256",
          "name": "_p2CrabID",
          "type": "uint256"
        },
        {
          "indexed": false,
          "internalType": "uint256",
          "name": "_winerCrabID",
          "type": "uint256"
        },
        {
          "indexed": false,
          "internalType": "enum SimpleCrabGame.BattleState",
          "name": "_battleStatus",
          "type": "uint8"
        },
        {
          "indexed": false,
          "internalType": "uint256",
          "name": "_battleStartTime",
          "type": "uint256"
        },
        {
          "indexed": false,
          "internalType": "uint256",
          "name": "_battleEndTime",
          "type": "uint256"
        }
      ],
      "name": "NewBattle",
      "type": "event"
    },
    {
      "anonymous": false,
      "inputs": [
        {
          "indexed": true,
          "internalType": "uint256",
          "name": "eventType",
          "type": "uint256"
        },
        {
          "indexed": false,
          "internalType": "address",
          "name": "owner",
          "type": "address"
        },
        {
          "indexed": false,
          "internalType": "uint256",
          "name": "crabID",
          "type": "uint256"
        },
        {
          "indexed": false,
          "internalType": "uint256",
          "name": "kind",
          "type": "uint256"
        },
        {
          "indexed": false,
          "internalType": "uint256",
          "name": "strength",
          "type": "uint256"
        },
        {
          "indexed": false,
          "internalType": "enum SimpleCrabGame.CrabState",
          "name": "state",
          "type": "uint8"
        }
      ],
      "name": "NewCrab",
      "type": "event"
    },
    {
      "anonymous": false,
      "inputs": [
        {
          "indexed": true,
          "internalType": "address",
          "name": "from",
          "type": "address"
        },
        {
          "indexed": true,
          "internalType": "address",
          "name": "to",
          "type": "address"
        },
        {
          "indexed": true,
          "internalType": "uint256",
          "name": "tokenId",
          "type": "uint256"
        }
      ],
      "name": "Transfer",
      "type": "event"
    },
    {
      "anonymous": false,
      "inputs": [
        {
          "indexed": true,
          "internalType": "uint256",
          "name": "eventType",
          "type": "uint256"
        },
        {
          "indexed": false,
          "internalType": "uint256",
          "name": "_battleID",
          "type": "uint256"
        },
        {
          "indexed": false,
          "internalType": "address",
          "name": "_p1Adress",
          "type": "address"
        },
        {
          "indexed": false,
          "internalType": "uint256",
          "name": "_p1CrabID",
          "type": "uint256"
        },
        {
          "indexed": false,
          "internalType": "address",
          "name": "_p2Adress",
          "type": "address"
        },
        {
          "indexed": false,
          "internalType": "uint256",
          "name": "_p2CrabID",
          "type": "uint256"
        },
        {
          "indexed": false,
          "internalType": "uint256",
          "name": "_winerCrabID",
          "type": "uint256"
        },
        {
          "indexed": false,
          "internalType": "enum SimpleCrabGame.BattleState",
          "name": "_battleStatus",
          "type": "uint8"
        },
        {
          "indexed": false,
          "internalType": "uint256",
          "name": "_battleStartTime",
          "type": "uint256"
        },
        {
          "indexed": false,
          "internalType": "uint256",
          "name": "_battleEndTime",
          "type": "uint256"
        }
      ],
      "name": "UpdateBattle",
      "type": "event"
    },
    {
      "anonymous": false,
      "inputs": [
        {
          "indexed": true,
          "internalType": "uint256",
          "name": "eventType",
          "type": "uint256"
        },
        {
          "indexed": false,
          "internalType": "address",
          "name": "owner",
          "type": "address"
        },
        {
          "indexed": false,
          "internalType": "uint256",
          "name": "crabID",
          "type": "uint256"
        },
        {
          "indexed": false,
          "internalType": "uint256",
          "name": "strength",
          "type": "uint256"
        },
        {
          "indexed": false,
          "internalType": "enum SimpleCrabGame.CrabState",
          "name": "state",
          "type": "uint8"
        }
      ],
      "name": "UpdateCrab",
      "type": "event"
    },
    {
      "inputs": [
        {
          "internalType": "address",
          "name": "to",
          "type": "address"
        },
        {
          "internalType": "uint256",
          "name": "tokenId",
          "type": "uint256"
        }
      ],
      "name": "approve",
      "outputs": [],
      "stateMutability": "nonpayable",
      "type": "function"
    },
    {
      "inputs": [
        {
          "internalType": "address",
          "name": "owner",
          "type": "address"
        }
      ],
      "name": "balanceOf",
      "outputs": [
        {
          "internalType": "uint256",
          "name": "",
          "type": "uint256"
        }
      ],
      "stateMutability": "view",
      "type": "function",
      "constant": true
    },
    {
      "inputs": [
        {
          "internalType": "uint256",
          "name": "",
          "type": "uint256"
        }
      ],
      "name": "battles",
      "outputs": [
        {
          "internalType": "uint256",
          "name": "battleID",
          "type": "uint256"
        },
        {
          "internalType": "uint256",
          "name": "battleAmount",
          "type": "uint256"
        },
        {
          "internalType": "address",
          "name": "p1Adress",
          "type": "address"
        },
        {
          "internalType": "uint256",
          "name": "p1CrabID",
          "type": "uint256"
        },
        {
          "internalType": "address",
          "name": "p2Adress",
          "type": "address"
        },
        {
          "internalType": "uint256",
          "name": "p2CrabID",
          "type": "uint256"
        },
        {
          "internalType": "uint256",
          "name": "winerCrabID",
          "type": "uint256"
        },
        {
          "internalType": "enum SimpleCrabGame.BattleState",
          "name": "battleStatus",
          "type": "uint8"
        },
        {
          "internalType": "uint256",
          "name": "battleStartTime",
          "type": "uint256"
        },
        {
          "internalType": "uint256",
          "name": "battleEndTime",
          "type": "uint256"
        }
      ],
      "stateMutability": "view",
      "type": "function",
      "constant": true
    },
    {
      "inputs": [
        {
          "internalType": "uint256",
          "name": "",
          "type": "uint256"
        }
      ],
      "name": "crabs",
      "outputs": [
        {
          "internalType": "uint256",
          "name": "crabID",
          "type": "uint256"
        },
        {
          "internalType": "uint256",
          "name": "strength",
          "type": "uint256"
        },
        {
          "internalType": "uint256",
          "name": "kind",
          "type": "uint256"
        },
        {
          "internalType": "enum SimpleCrabGame.CrabState",
          "name": "state",
          "type": "uint8"
        }
      ],
      "stateMutability": "view",
      "type": "function",
      "constant": true
    },
    {
      "inputs": [],
      "name": "erc20TokenInfo",
      "outputs": [
        {
          "internalType": "contract ERC20",
          "name": "",
          "type": "address"
        }
      ],
      "stateMutability": "view",
      "type": "function",
      "constant": true
    },
    {
      "inputs": [
        {
          "internalType": "uint256",
          "name": "tokenId",
          "type": "uint256"
        }
      ],
      "name": "getApproved",
      "outputs": [
        {
          "internalType": "address",
          "name": "",
          "type": "address"
        }
      ],
      "stateMutability": "view",
      "type": "function",
      "constant": true
    },
    {
      "inputs": [
        {
          "internalType": "address",
          "name": "owner",
          "type": "address"
        },
        {
          "internalType": "address",
          "name": "operator",
          "type": "address"
        }
      ],
      "name": "isApprovedForAll",
      "outputs": [
        {
          "internalType": "bool",
          "name": "",
          "type": "bool"
        }
      ],
      "stateMutability": "view",
      "type": "function",
      "constant": true
    },
    {
      "inputs": [],
      "name": "name",
      "outputs": [
        {
          "internalType": "string",
          "name": "",
          "type": "string"
        }
      ],
      "stateMutability": "view",
      "type": "function",
      "constant": true
    },
    {
      "inputs": [
        {
          "internalType": "uint256",
          "name": "tokenId",
          "type": "uint256"
        }
      ],
      "name": "ownerOf",
      "outputs": [
        {
          "internalType": "address",
          "name": "",
          "type": "address"
        }
      ],
      "stateMutability": "view",
      "type": "function",
      "constant": true
    },
    {
      "inputs": [
        {
          "internalType": "address",
          "name": "from",
          "type": "address"
        },
        {
          "internalType": "address",
          "name": "to",
          "type": "address"
        },
        {
          "internalType": "uint256",
          "name": "tokenId",
          "type": "uint256"
        }
      ],
      "name": "safeTransferFrom",
      "outputs": [],
      "stateMutability": "nonpayable",
      "type": "function"
    },
    {
      "inputs": [
        {
          "internalType": "address",
          "name": "from",
          "type": "address"
        },
        {
          "internalType": "address",
          "name": "to",
          "type": "address"
        },
        {
          "internalType": "uint256",
          "name": "tokenId",
          "type": "uint256"
        },
        {
          "internalType": "bytes",
          "name": "_data",
          "type": "bytes"
        }
      ],
      "name": "safeTransferFrom",
      "outputs": [],
      "stateMutability": "nonpayable",
      "type": "function"
    },
    {
      "inputs": [
        {
          "internalType": "address",
          "name": "operator",
          "type": "address"
        },
        {
          "internalType": "bool",
          "name": "approved",
          "type": "bool"
        }
      ],
      "name": "setApprovalForAll",
      "outputs": [],
      "stateMutability": "nonpayable",
      "type": "function"
    },
    {
      "inputs": [
        {
          "internalType": "bytes4",
          "name": "interfaceId",
          "type": "bytes4"
        }
      ],
      "name": "supportsInterface",
      "outputs": [
        {
          "internalType": "bool",
          "name": "",
          "type": "bool"
        }
      ],
      "stateMutability": "view",
      "type": "function",
      "constant": true
    },
    {
      "inputs": [],
      "name": "symbol",
      "outputs": [
        {
          "internalType": "string",
          "name": "",
          "type": "string"
        }
      ],
      "stateMutability": "view",
      "type": "function",
      "constant": true
    },
    {
      "inputs": [],
      "name": "tokenDecimals",
      "outputs": [
        {
          "internalType": "uint256",
          "name": "",
          "type": "uint256"
        }
      ],
      "stateMutability": "view",
      "type": "function",
      "constant": true
    },
    {
      "inputs": [
        {
          "internalType": "uint256",
          "name": "tokenId",
          "type": "uint256"
        }
      ],
      "name": "tokenURI",
      "outputs": [
        {
          "internalType": "string",
          "name": "",
          "type": "string"
        }
      ],
      "stateMutability": "view",
      "type": "function",
      "constant": true
    },
    {
      "inputs": [
        {
          "internalType": "address",
          "name": "from",
          "type": "address"
        },
        {
          "internalType": "address",
          "name": "to",
          "type": "address"
        },
        {
          "internalType": "uint256",
          "name": "tokenId",
          "type": "uint256"
        }
      ],
      "name": "transferFrom",
      "outputs": [],
      "stateMutability": "nonpayable",
      "type": "function"
    },
    {
      "inputs": [],
      "name": "mintCrab",
      "outputs": [],
      "stateMutability": "nonpayable",
      "type": "function"
    },
    {
      "inputs": [
        {
          "internalType": "uint256",
          "name": "_p1CrabID",
          "type": "uint256"
        },
        {
          "internalType": "uint256",
          "name": "_battleAmount",
          "type": "uint256"
        }
      ],
      "name": "startBattle",
      "outputs": [],
      "stateMutability": "nonpayable",
      "type": "function"
    },
    {
      "inputs": [
        {
          "internalType": "uint256",
          "name": "_p2CrabID",
          "type": "uint256"
        },
        {
          "internalType": "uint256",
          "name": "_battleID",
          "type": "uint256"
        }
      ],
      "name": "acceptBattle",
      "outputs": [],
      "stateMutability": "nonpayable",
      "type": "function"
    },
    {
      "inputs": [
        {
          "internalType": "uint256",
          "name": "_battleID",
          "type": "uint256"
        }
      ],
      "name": "endBattle",
      "outputs": [],
      "stateMutability": "nonpayable",
      "type": "function"
    },
    {
      "inputs": [
        {
          "internalType": "uint256",
          "name": "_max",
          "type": "uint256"
        }
      ],
      "name": "randomMax",
      "outputs": [
        {
          "internalType": "uint256",
          "name": "",
          "type": "uint256"
        }
      ],
      "stateMutability": "view",
      "type": "function",
      "constant": true
    }
  ],
  "bytecode": "0x6080604052670de0b6b3a7640000600b553480156200001d57600080fd5b50604051620050fb380380620050fb833981810160405281019062000043919062000255565b6040518060400160405280601981526020017f43726162496e666f204d616e6167656d656e7420546f6b656e000000000000008152506040518060400160405280600681526020017f53434737323100000000000000000000000000000000000000000000000000008152508160009080519060200190620000c79291906200013b565b508060019080519060200190620000e09291906200013b565b50505060006009819055506000600a8190555080600660006101000a81548173ffffffffffffffffffffffffffffffffffffffff021916908373ffffffffffffffffffffffffffffffffffffffff16021790555050620002ec565b8280546200014990620002b6565b90600052602060002090601f0160209004810192826200016d5760008555620001b9565b82601f106200018857805160ff1916838001178555620001b9565b82800160010185558215620001b9579182015b82811115620001b85782518255916020019190600101906200019b565b5b509050620001c89190620001cc565b5090565b5b80821115620001e7576000816000905550600101620001cd565b5090565b600080fd5b600073ffffffffffffffffffffffffffffffffffffffff82169050919050565b60006200021d82620001f0565b9050919050565b6200022f8162000210565b81146200023b57600080fd5b50565b6000815190506200024f8162000224565b92915050565b6000602082840312156200026e576200026d620001eb565b5b60006200027e848285016200023e565b91505092915050565b7f4e487b7100000000000000000000000000000000000000000000000000000000600052602260045260246000fd5b60006002820490506001821680620002cf57607f821691505b60208210811415620002e657620002e562000287565b5b50919050565b614dff80620002fc6000396000f3fe608060405234801561001057600080fd5b50600436106101425760003560e01c8063606d2e96116100b85780639a0de98b1161007c5780639a0de98b1461036a578063a22cb4651461039a578063b88d4fde146103b6578063c87b56dd146103d2578063cefadb0e14610402578063e985e9c51461043557610142565b8063606d2e96146102975780636352211e146102d057806370a082311461030057806374fd87331461033057806395d89b411461034c57610142565b8063304b3c601161010a578063304b3c60146101fd57806336836b09146102075780633b97e856146102255780633daa6ba9146102435780634157e6ef1461025f57806342842e0e1461027b57610142565b806301ffc9a71461014757806306fdde0314610177578063081812fc14610195578063095ea7b3146101c557806323b872dd146101e1575b600080fd5b610161600480360381019061015c91906133ca565b610465565b60405161016e9190613412565b60405180910390f35b61017f610547565b60405161018c91906134c6565b60405180910390f35b6101af60048036038101906101aa919061351e565b6105d9565b6040516101bc919061358c565b60405180910390f35b6101df60048036038101906101da91906135d3565b61065e565b005b6101fb60048036038101906101f69190613613565b610776565b005b6102056107d6565b005b61020f610a9c565b60405161021c91906136c5565b60405180910390f35b61022d610ac2565b60405161023a91906136ef565b60405180910390f35b61025d6004803603810190610258919061370a565b610ac8565b005b6102796004803603810190610274919061351e565b611067565b005b61029560048036038101906102909190613613565b611cb4565b005b6102b160048036038101906102ac919061351e565b611cd4565b6040516102c79a999897969594939291906137c1565b60405180910390f35b6102ea60048036038101906102e5919061351e565b611d85565b6040516102f7919061358c565b60405180910390f35b61031a6004803603810190610315919061385d565b611e37565b60405161032791906136ef565b60405180910390f35b61034a6004803603810190610345919061370a565b611eef565b005b6103546124f7565b60405161036191906134c6565b60405180910390f35b610384600480360381019061037f919061351e565b612589565b60405161039191906136ef565b60405180910390f35b6103b460048036038101906103af91906138b6565b6125de565b005b6103d060048036038101906103cb9190613a2b565b6125f4565b005b6103ec60048036038101906103e7919061351e565b612656565b6040516103f991906134c6565b60405180910390f35b61041c6004803603810190610417919061351e565b6126fd565b60405161042c9493929190613af6565b60405180910390f35b61044f600480360381019061044a9190613b3b565b61274a565b60405161045c9190613412565b60405180910390f35b60007f80ac58cd000000000000000000000000000000000000000000000000000000007bffffffffffffffffffffffffffffffffffffffffffffffffffffffff1916827bffffffffffffffffffffffffffffffffffffffffffffffffffffffff1916148061053057507f5b5e139f000000000000000000000000000000000000000000000000000000007bffffffffffffffffffffffffffffffffffffffffffffffffffffffff1916827bffffffffffffffffffffffffffffffffffffffffffffffffffffffff1916145b80610540575061053f826127de565b5b9050919050565b60606000805461055690613baa565b80601f016020809104026020016040519081016040528092919081815260200182805461058290613baa565b80156105cf5780601f106105a4576101008083540402835291602001916105cf565b820191906000526020600020905b8154815290600101906020018083116105b257829003601f168201915b5050505050905090565b60006105e482612848565b610623576040517f08c379a000000000000000000000000000000000000000000000000000000000815260040161061a90613c4e565b60405180910390fd5b6004600083815260200190815260200160002060009054906101000a900473ffffffffffffffffffffffffffffffffffffffff169050919050565b600061066982611d85565b90508073ffffffffffffffffffffffffffffffffffffffff168373ffffffffffffffffffffffffffffffffffffffff1614156106da576040517f08c379a00000000000000000000000000000000000000000000000000000000081526004016106d190613ce0565b60405180910390fd5b8073ffffffffffffffffffffffffffffffffffffffff166106f96128b4565b73ffffffffffffffffffffffffffffffffffffffff1614806107285750610727816107226128b4565b61274a565b5b610767576040517f08c379a000000000000000000000000000000000000000000000000000000000815260040161075e90613d72565b60405180910390fd5b61077183836128bc565b505050565b6107876107816128b4565b82612975565b6107c6576040517f08c379a00000000000000000000000000000000000000000000000000000000081526004016107bd90613e04565b60405180910390fd5b6107d1838383612a53565b505050565b600b5460016107e59190613e53565b600660009054906101000a900473ffffffffffffffffffffffffffffffffffffffff1673ffffffffffffffffffffffffffffffffffffffff1663dd62ed3e33306040518363ffffffff1660e01b8152600401610842929190613ead565b602060405180830381865afa15801561085f573d6000803e3d6000fd5b505050506040513d601f19601f820116820180604052508101906108839190613eeb565b10156108c4576040517f08c379a00000000000000000000000000000000000000000000000000000000081526004016108bb90613f64565b60405180910390fd5b600660009054906101000a900473ffffffffffffffffffffffffffffffffffffffff1673ffffffffffffffffffffffffffffffffffffffff166323b872dd3330600b5460016109139190613e53565b6040518463ffffffff1660e01b815260040161093193929190613f84565b6020604051808303816000875af1158015610950573d6000803e3d6000fd5b505050506040513d601f19601f820116820180604052508101906109749190613fd0565b5060006007805490509050600061098b601e612589565b90506000610999600a612589565b905060076040518060800160405280858152602001848152602001838152602001600060018111156109ce576109cd61374a565b5b815250908060018154018082558091505060019003906000526020600020906004020160009091909190915060008201518160000155602082015181600101556040820151816002015560608201518160030160006101000a81548160ff02191690836001811115610a4357610a4261374a565b5b02179055505050610a543384612caf565b6103e97f54a9110593ad5234b16f77b5b910f754feb052bd4d73221459b2a41d5585bbb5338584866000604051610a8f959493929190613ffd565b60405180910390a2505050565b600660009054906101000a900473ffffffffffffffffffffffffffffffffffffffff1681565b600b5481565b600b5481610ad69190613e53565b600660009054906101000a900473ffffffffffffffffffffffffffffffffffffffff1673ffffffffffffffffffffffffffffffffffffffff1663dd62ed3e33306040518363ffffffff1660e01b8152600401610b33929190613ead565b602060405180830381865afa158015610b50573d6000803e3d6000fd5b505050506040513d601f19601f82011682018060405250810190610b749190613eeb565b1015610bb5576040517f08c379a0000000000000000000000000000000000000000000000000000000008152600401610bac9061409c565b60405180910390fd5b600660009054906101000a900473ffffffffffffffffffffffffffffffffffffffff1673ffffffffffffffffffffffffffffffffffffffff166323b872dd3330600b5485610c039190613e53565b6040518463ffffffff1660e01b8152600401610c2193929190613f84565b6020604051808303816000875af1158015610c40573d6000803e3d6000fd5b505050506040513d601f19601f82011682018060405250810190610c649190613fd0565b503373ffffffffffffffffffffffffffffffffffffffff16610c8583611d85565b73ffffffffffffffffffffffffffffffffffffffff1614610cdb576040517f08c379a0000000000000000000000000000000000000000000000000000000008152600401610cd290614108565b60405180910390fd5b600180811115610cee57610ced61374a565b5b60078381548110610d0257610d01614128565b5b906000526020600020906004020160030160009054906101000a900460ff166001811115610d3357610d3261374a565b5b1415610d74576040517f08c379a0000000000000000000000000000000000000000000000000000000008152600401610d6b906141a3565b60405180910390fd5b600160078381548110610d8a57610d89614128565b5b906000526020600020906004020160030160006101000a81548160ff02191690836001811115610dbd57610dbc61374a565b5b02179055506103ea7f0cb31dab73b82be9ac3a28e1ea335e650ee70a4d9ed2be613b4f36abb864d559338460078681548110610dfc57610dfb614128565b5b9060005260206000209060040201600101546001604051610e2094939291906141c3565b60405180910390a26000600880549050905060086040518061014001604052808381526020018481526020013373ffffffffffffffffffffffffffffffffffffffff168152602001858152602001600073ffffffffffffffffffffffffffffffffffffffff168152602001600081526020016000815260200160006002811115610ead57610eac61374a565b5b8152602001428152602001600081525090806001815401808255809150506001900390600052602060002090600a0201600090919091909150600082015181600001556020820151816001015560408201518160020160006101000a81548173ffffffffffffffffffffffffffffffffffffffff021916908373ffffffffffffffffffffffffffffffffffffffff1602179055506060820151816003015560808201518160040160006101000a81548173ffffffffffffffffffffffffffffffffffffffff021916908373ffffffffffffffffffffffffffffffffffffffff16021790555060a0820151816005015560c0820151816006015560e08201518160070160006101000a81548160ff02191690836002811115610fd157610fd061374a565b5b02179055506101008201518160080155610120820151816009015550506103eb7fdc9060709e69ceae25eb963004099fea67da0b01c51454e20a741af3dee9d4da8284338760008060008060088b815481106110305761102f614128565b5b90600052602060002090600a020160080154600060405161105a9a99989796959493929190614243565b60405180910390a2505050565b6001600281111561107b5761107a61374a565b5b6008828154811061108f5761108e614128565b5b90600052602060002090600a020160070160009054906101000a900460ff1660028111156110c0576110bf61374a565b5b14611100576040517f08c379a00000000000000000000000000000000000000000000000000000000081526004016110f790614351565b60405180910390fd5b60026008828154811061111657611115614128565b5b90600052602060002090600a020160070160006101000a81548160ff021916908360028111156111495761114861374a565b5b0217905550600060076008838154811061116657611165614128565b5b90600052602060002090600a0201600301548154811061118957611188614128565b5b906000526020600020906004020160010154905060006007600884815481106111b5576111b4614128565b5b90600052602060002090600a020160050154815481106111d8576111d7614128565b5b90600052602060002090600402016001015490506000818310156112075782826112029190614371565b611214565b81836112139190614371565b5b9050600080821115611238576112356002836112309190613e53565b612589565b90505b80828461124591906143a5565b61124f9190614371565b818561125b91906143a5565b1115611545576008858154811061127557611274614128565b5b90600052602060002090600a0201600301546008868154811061129b5761129a614128565b5b90600052602060002090600a02016006018190555060016009546112bf91906143a5565b6009819055508284106113765760016007600887815481106112e4576112e3614128565b5b90600052602060002090600a0201600301548154811061130757611306614128565b5b90600052602060002090600402016001015461132391906143a5565b60076008878154811061133957611338614128565b5b90600052602060002090600a0201600301548154811061135c5761135b614128565b5b90600052602060002090600402016001018190555061141c565b600260076008878154811061138e5761138d614128565b5b90600052602060002090600a020160030154815481106113b1576113b0614128565b5b9060005260206000209060040201600101546113cd91906143a5565b6007600887815481106113e3576113e2614128565b5b90600052602060002090600a0201600301548154811061140657611405614128565b5b9060005260206000209060040201600101819055505b600660009054906101000a900473ffffffffffffffffffffffffffffffffffffffff1673ffffffffffffffffffffffffffffffffffffffff1663a9059cbb6008878154811061146e5761146d614128565b5b90600052602060002090600a020160020160009054906101000a900473ffffffffffffffffffffffffffffffffffffffff166002600b5460088a815481106114b9576114b8614128565b5b90600052602060002090600a0201600101546114d59190613e53565b6114df9190613e53565b6040518363ffffffff1660e01b81526004016114fc9291906143fb565b6020604051808303816000875af115801561151b573d6000803e3d6000fd5b505050506040513d601f19601f8201168201806040525081019061153f9190613fd0565b50611825565b6008858154811061155957611558614128565b5b90600052602060002090600a0201600501546008868154811061157f5761157e614128565b5b90600052602060002090600a0201600601819055506001600a546115a391906143a5565b600a8190555082841061165a5760026007600887815481106115c8576115c7614128565b5b90600052602060002090600a020160050154815481106115eb576115ea614128565b5b90600052602060002090600402016001015461160791906143a5565b60076008878154811061161d5761161c614128565b5b90600052602060002090600a020160050154815481106116405761163f614128565b5b906000526020600020906004020160010181905550611700565b600160076008878154811061167257611671614128565b5b90600052602060002090600a0201600501548154811061169557611694614128565b5b9060005260206000209060040201600101546116b191906143a5565b6007600887815481106116c7576116c6614128565b5b90600052602060002090600a020160050154815481106116ea576116e9614128565b5b9060005260206000209060040201600101819055505b600660009054906101000a900473ffffffffffffffffffffffffffffffffffffffff1673ffffffffffffffffffffffffffffffffffffffff1663a9059cbb6008878154811061175257611751614128565b5b90600052602060002090600a020160040160009054906101000a900473ffffffffffffffffffffffffffffffffffffffff166002600b5460088a8154811061179d5761179c614128565b5b90600052602060002090600a0201600101546117b99190613e53565b6117c39190613e53565b6040518363ffffffff1660e01b81526004016117e09291906143fb565b6020604051808303816000875af11580156117ff573d6000803e3d6000fd5b505050506040513d601f19601f820116820180604052508101906118239190613fd0565b505b426008868154811061183a57611839614128565b5b90600052602060002090600a020160090181905550600060076008878154811061186757611866614128565b5b90600052602060002090600a0201600301548154811061188a57611889614128565b5b906000526020600020906004020160030160006101000a81548160ff021916908360018111156118bd576118bc61374a565b5b021790555060006007600887815481106118da576118d9614128565b5b90600052602060002090600a020160050154815481106118fd576118fc614128565b5b906000526020600020906004020160030160006101000a81548160ff021916908360018111156119305761192f61374a565b5b02179055506103ea7f0cb31dab73b82be9ac3a28e1ea335e650ee70a4d9ed2be613b4f36abb864d5596008878154811061196d5761196c614128565b5b90600052602060002090600a020160020160009054906101000a900473ffffffffffffffffffffffffffffffffffffffff16600888815481106119b3576119b2614128565b5b90600052602060002090600a020160030154600760088a815481106119db576119da614128565b5b90600052602060002090600a020160030154815481106119fe576119fd614128565b5b9060005260206000209060040201600101546000604051611a2294939291906141c3565b60405180910390a26103ea7f0cb31dab73b82be9ac3a28e1ea335e650ee70a4d9ed2be613b4f36abb864d55960088781548110611a6257611a61614128565b5b90600052602060002090600a020160040160009054906101000a900473ffffffffffffffffffffffffffffffffffffffff1660088881548110611aa857611aa7614128565b5b90600052602060002090600a020160050154600760088a81548110611ad057611acf614128565b5b90600052602060002090600a02016005015481548110611af357611af2614128565b5b9060005260206000209060040201600101546000604051611b1794939291906141c3565b60405180910390a26103ec7f6d2b6664d22159774ddec589f29b174d898d0830e4d95c73ac97206ec5d29fe78660088881548110611b5857611b57614128565b5b90600052602060002090600a020160020160009054906101000a900473ffffffffffffffffffffffffffffffffffffffff1660088981548110611b9e57611b9d614128565b5b90600052602060002090600a02016003015460088a81548110611bc457611bc3614128565b5b90600052602060002090600a020160040160009054906101000a900473ffffffffffffffffffffffffffffffffffffffff1660088b81548110611c0a57611c09614128565b5b90600052602060002090600a02016005015460088c81548110611c3057611c2f614128565b5b90600052602060002090600a020160060154600260088e81548110611c5857611c57614128565b5b90600052602060002090600a02016008015460088f81548110611c7e57611c7d614128565b5b90600052602060002090600a020160090154604051611ca599989796959493929190614424565b60405180910390a25050505050565b611ccf838383604051806020016040528060008152506125f4565b505050565b60088181548110611ce457600080fd5b90600052602060002090600a02016000915090508060000154908060010154908060020160009054906101000a900473ffffffffffffffffffffffffffffffffffffffff16908060030154908060040160009054906101000a900473ffffffffffffffffffffffffffffffffffffffff16908060050154908060060154908060070160009054906101000a900460ff1690806008015490806009015490508a565b6000806002600084815260200190815260200160002060009054906101000a900473ffffffffffffffffffffffffffffffffffffffff169050600073ffffffffffffffffffffffffffffffffffffffff168173ffffffffffffffffffffffffffffffffffffffff161415611e2e576040517f08c379a0000000000000000000000000000000000000000000000000000000008152600401611e2590614523565b60405180910390fd5b80915050919050565b60008073ffffffffffffffffffffffffffffffffffffffff168273ffffffffffffffffffffffffffffffffffffffff161415611ea8576040517f08c379a0000000000000000000000000000000000000000000000000000000008152600401611e9f906145b5565b60405180910390fd5b600360008373ffffffffffffffffffffffffffffffffffffffff1673ffffffffffffffffffffffffffffffffffffffff168152602001908152602001600020549050919050565b600b5460088281548110611f0657611f05614128565b5b90600052602060002090600a020160010154611f229190613e53565b600660009054906101000a900473ffffffffffffffffffffffffffffffffffffffff1673ffffffffffffffffffffffffffffffffffffffff1663dd62ed3e33306040518363ffffffff1660e01b8152600401611f7f929190613ead565b602060405180830381865afa158015611f9c573d6000803e3d6000fd5b505050506040513d601f19601f82011682018060405250810190611fc09190613eeb565b1015612001576040517f08c379a0000000000000000000000000000000000000000000000000000000008152600401611ff89061409c565b60405180910390fd5b600660009054906101000a900473ffffffffffffffffffffffffffffffffffffffff1673ffffffffffffffffffffffffffffffffffffffff166323b872dd3330600b546008868154811061205857612057614128565b5b90600052602060002090600a0201600101546120749190613e53565b6040518463ffffffff1660e01b815260040161209293929190613f84565b6020604051808303816000875af11580156120b1573d6000803e3d6000fd5b505050506040513d601f19601f820116820180604052508101906120d59190613fd0565b503373ffffffffffffffffffffffffffffffffffffffff166120f683611d85565b73ffffffffffffffffffffffffffffffffffffffff161461214c576040517f08c379a000000000000000000000000000000000000000000000000000000000815260040161214390614108565b60405180910390fd5b60018081111561215f5761215e61374a565b5b6007838154811061217357612172614128565b5b906000526020600020906004020160030160009054906101000a900460ff1660018111156121a4576121a361374a565b5b14156121e5576040517f08c379a00000000000000000000000000000000000000000000000000000000081526004016121dc906141a3565b60405180910390fd5b6001600783815481106121fb576121fa614128565b5b906000526020600020906004020160030160006101000a81548160ff0219169083600181111561222e5761222d61374a565b5b02179055506103ea7f0cb31dab73b82be9ac3a28e1ea335e650ee70a4d9ed2be613b4f36abb864d55933846007868154811061226d5761226c614128565b5b906000526020600020906004020160010154600160405161229194939291906141c3565b60405180910390a2600060028111156122ad576122ac61374a565b5b600882815481106122c1576122c0614128565b5b90600052602060002090600a020160070160009054906101000a900460ff1660028111156122f2576122f161374a565b5b14612332576040517f08c379a000000000000000000000000000000000000000000000000000000000815260040161232990614647565b60405180910390fd5b60016008828154811061234857612347614128565b5b90600052602060002090600a020160070160006101000a81548160ff0219169083600281111561237b5761237a61374a565b5b0217905550816008828154811061239557612394614128565b5b90600052602060002090600a02016005018190555033600882815481106123bf576123be614128565b5b90600052602060002090600a020160040160006101000a81548173ffffffffffffffffffffffffffffffffffffffff021916908373ffffffffffffffffffffffffffffffffffffffff1602179055506103ec7f6d2b6664d22159774ddec589f29b174d898d0830e4d95c73ac97206ec5d29fe7826008848154811061244757612446614128565b5b90600052602060002090600a020160020160009054906101000a900473ffffffffffffffffffffffffffffffffffffffff166008858154811061248d5761248c614128565b5b90600052602060002090600a02016003015433876000600160088a815481106124b9576124b8614128565b5b90600052602060002090600a02016008015460006040516124e299989796959493929190614667565b60405180910390a26124f381611067565b5050565b60606001805461250690613baa565b80601f016020809104026020016040519081016040528092919081815260200182805461253290613baa565b801561257f5780601f106125545761010080835404028352916020019161257f565b820191906000526020600020905b81548152906001019060200180831161256257829003601f168201915b5050505050905090565b6000814260014361259a9190614371565b40600954600a546040516020016125b49493929190614740565b6040516020818303038152906040528051906020012060001c6125d791906147bd565b9050919050565b6125f06125e96128b4565b8383612e7d565b5050565b6126056125ff6128b4565b83612975565b612644576040517f08c379a000000000000000000000000000000000000000000000000000000000815260040161263b90613e04565b60405180910390fd5b61265084848484612fea565b50505050565b606061266182612848565b6126a0576040517f08c379a000000000000000000000000000000000000000000000000000000000815260040161269790614860565b60405180910390fd5b60006126aa613046565b905060008151116126ca57604051806020016040528060008152506126f5565b806126d48461305d565b6040516020016126e59291906148bc565b6040516020818303038152906040525b915050919050565b6007818154811061270d57600080fd5b90600052602060002090600402016000915090508060000154908060010154908060020154908060030160009054906101000a900460ff16905084565b6000600560008473ffffffffffffffffffffffffffffffffffffffff1673ffffffffffffffffffffffffffffffffffffffff16815260200190815260200160002060008373ffffffffffffffffffffffffffffffffffffffff1673ffffffffffffffffffffffffffffffffffffffff16815260200190815260200160002060009054906101000a900460ff16905092915050565b60007f01ffc9a7000000000000000000000000000000000000000000000000000000007bffffffffffffffffffffffffffffffffffffffffffffffffffffffff1916827bffffffffffffffffffffffffffffffffffffffffffffffffffffffff1916149050919050565b60008073ffffffffffffffffffffffffffffffffffffffff166002600084815260200190815260200160002060009054906101000a900473ffffffffffffffffffffffffffffffffffffffff1673ffffffffffffffffffffffffffffffffffffffff1614159050919050565b600033905090565b816004600083815260200190815260200160002060006101000a81548173ffffffffffffffffffffffffffffffffffffffff021916908373ffffffffffffffffffffffffffffffffffffffff160217905550808273ffffffffffffffffffffffffffffffffffffffff1661292f83611d85565b73ffffffffffffffffffffffffffffffffffffffff167f8c5be1e5ebec7d5bd14f71427d1e84f3dd0314c0f7b2291e5b200ac8c7c3b92560405160405180910390a45050565b600061298082612848565b6129bf576040517f08c379a00000000000000000000000000000000000000000000000000000000081526004016129b690614952565b60405180910390fd5b60006129ca83611d85565b90508073ffffffffffffffffffffffffffffffffffffffff168473ffffffffffffffffffffffffffffffffffffffff161480612a3957508373ffffffffffffffffffffffffffffffffffffffff16612a21846105d9565b73ffffffffffffffffffffffffffffffffffffffff16145b80612a4a5750612a49818561274a565b5b91505092915050565b8273ffffffffffffffffffffffffffffffffffffffff16612a7382611d85565b73ffffffffffffffffffffffffffffffffffffffff1614612ac9576040517f08c379a0000000000000000000000000000000000000000000000000000000008152600401612ac0906149e4565b60405180910390fd5b600073ffffffffffffffffffffffffffffffffffffffff168273ffffffffffffffffffffffffffffffffffffffff161415612b39576040517f08c379a0000000000000000000000000000000000000000000000000000000008152600401612b3090614a76565b60405180910390fd5b612b448383836131be565b612b4f6000826128bc565b6001600360008573ffffffffffffffffffffffffffffffffffffffff1673ffffffffffffffffffffffffffffffffffffffff1681526020019081526020016000206000828254612b9f9190614371565b925050819055506001600360008473ffffffffffffffffffffffffffffffffffffffff1673ffffffffffffffffffffffffffffffffffffffff1681526020019081526020016000206000828254612bf691906143a5565b92505081905550816002600083815260200190815260200160002060006101000a81548173ffffffffffffffffffffffffffffffffffffffff021916908373ffffffffffffffffffffffffffffffffffffffff160217905550808273ffffffffffffffffffffffffffffffffffffffff168473ffffffffffffffffffffffffffffffffffffffff167fddf252ad1be2c89b69c2b068fc378daa952ba7f163c4a11628f55a4df523b3ef60405160405180910390a4505050565b600073ffffffffffffffffffffffffffffffffffffffff168273ffffffffffffffffffffffffffffffffffffffff161415612d1f576040517f08c379a0000000000000000000000000000000000000000000000000000000008152600401612d1690614ae2565b60405180910390fd5b612d2881612848565b15612d68576040517f08c379a0000000000000000000000000000000000000000000000000000000008152600401612d5f90614b4e565b60405180910390fd5b612d74600083836131be565b6001600360008473ffffffffffffffffffffffffffffffffffffffff1673ffffffffffffffffffffffffffffffffffffffff1681526020019081526020016000206000828254612dc491906143a5565b92505081905550816002600083815260200190815260200160002060006101000a81548173ffffffffffffffffffffffffffffffffffffffff021916908373ffffffffffffffffffffffffffffffffffffffff160217905550808273ffffffffffffffffffffffffffffffffffffffff16600073ffffffffffffffffffffffffffffffffffffffff167fddf252ad1be2c89b69c2b068fc378daa952ba7f163c4a11628f55a4df523b3ef60405160405180910390a45050565b8173ffffffffffffffffffffffffffffffffffffffff168373ffffffffffffffffffffffffffffffffffffffff161415612eec576040517f08c379a0000000000000000000000000000000000000000000000000000000008152600401612ee390614bba565b60405180910390fd5b80600560008573ffffffffffffffffffffffffffffffffffffffff1673ffffffffffffffffffffffffffffffffffffffff16815260200190815260200160002060008473ffffffffffffffffffffffffffffffffffffffff1673ffffffffffffffffffffffffffffffffffffffff16815260200190815260200160002060006101000a81548160ff0219169083151502179055508173ffffffffffffffffffffffffffffffffffffffff168373ffffffffffffffffffffffffffffffffffffffff167f17307eab39ab6107e8899845ad3d59bd9653f200f220920489ca2b5937696c3183604051612fdd9190613412565b60405180910390a3505050565b612ff5848484612a53565b613001848484846131c3565b613040576040517f08c379a000000000000000000000000000000000000000000000000000000000815260040161303790614c4c565b60405180910390fd5b50505050565b606060405180602001604052806000815250905090565b606060008214156130a5576040518060400160405280600181526020017f300000000000000000000000000000000000000000000000000000000000000081525090506131b9565b600082905060005b600082146130d75780806130c090614c6c565b915050600a826130d09190614cb5565b91506130ad565b60008167ffffffffffffffff8111156130f3576130f2613900565b5b6040519080825280601f01601f1916602001820160405280156131255781602001600182028036833780820191505090505b5090505b600085146131b25760018261313e9190614371565b9150600a8561314d91906147bd565b603061315991906143a5565b60f81b81838151811061316f5761316e614128565b5b60200101907effffffffffffffffffffffffffffffffffffffffffffffffffffffffffffff1916908160001a905350600a856131ab9190614cb5565b9450613129565b8093505050505b919050565b505050565b60006131e48473ffffffffffffffffffffffffffffffffffffffff1661334b565b1561333e578373ffffffffffffffffffffffffffffffffffffffff1663150b7a0261320d6128b4565b8786866040518563ffffffff1660e01b815260040161322f9493929190614d3b565b6020604051808303816000875af192505050801561326b57506040513d601f19601f820116820180604052508101906132689190614d9c565b60015b6132ee573d806000811461329b576040519150601f19603f3d011682016040523d82523d6000602084013e6132a0565b606091505b506000815114156132e6576040517f08c379a00000000000000000000000000000000000000000000000000000000081526004016132dd90614c4c565b60405180910390fd5b805181602001fd5b63150b7a0260e01b7bffffffffffffffffffffffffffffffffffffffffffffffffffffffff1916817bffffffffffffffffffffffffffffffffffffffffffffffffffffffff191614915050613343565b600190505b949350505050565b600080823b905060008111915050919050565b6000604051905090565b600080fd5b600080fd5b60007fffffffff0000000000000000000000000000000000000000000000000000000082169050919050565b6133a781613372565b81146133b257600080fd5b50565b6000813590506133c48161339e565b92915050565b6000602082840312156133e0576133df613368565b5b60006133ee848285016133b5565b91505092915050565b60008115159050919050565b61340c816133f7565b82525050565b60006020820190506134276000830184613403565b92915050565b600081519050919050565b600082825260208201905092915050565b60005b8381101561346757808201518184015260208101905061344c565b83811115613476576000848401525b50505050565b6000601f19601f8301169050919050565b60006134988261342d565b6134a28185613438565b93506134b2818560208601613449565b6134bb8161347c565b840191505092915050565b600060208201905081810360008301526134e0818461348d565b905092915050565b6000819050919050565b6134fb816134e8565b811461350657600080fd5b50565b600081359050613518816134f2565b92915050565b60006020828403121561353457613533613368565b5b600061354284828501613509565b91505092915050565b600073ffffffffffffffffffffffffffffffffffffffff82169050919050565b60006135768261354b565b9050919050565b6135868161356b565b82525050565b60006020820190506135a1600083018461357d565b92915050565b6135b08161356b565b81146135bb57600080fd5b50565b6000813590506135cd816135a7565b92915050565b600080604083850312156135ea576135e9613368565b5b60006135f8858286016135be565b925050602061360985828601613509565b9150509250929050565b60008060006060848603121561362c5761362b613368565b5b600061363a868287016135be565b935050602061364b868287016135be565b925050604061365c86828701613509565b9150509250925092565b6000819050919050565b600061368b6136866136818461354b565b613666565b61354b565b9050919050565b600061369d82613670565b9050919050565b60006136af82613692565b9050919050565b6136bf816136a4565b82525050565b60006020820190506136da60008301846136b6565b92915050565b6136e9816134e8565b82525050565b600060208201905061370460008301846136e0565b92915050565b6000806040838503121561372157613720613368565b5b600061372f85828601613509565b925050602061374085828601613509565b9150509250929050565b7f4e487b7100000000000000000000000000000000000000000000000000000000600052602160045260246000fd5b6003811061378a5761378961374a565b5b50565b600081905061379b82613779565b919050565b60006137ab8261378d565b9050919050565b6137bb816137a0565b82525050565b6000610140820190506137d7600083018d6136e0565b6137e4602083018c6136e0565b6137f1604083018b61357d565b6137fe606083018a6136e0565b61380b608083018961357d565b61381860a08301886136e0565b61382560c08301876136e0565b61383260e08301866137b2565b6138406101008301856136e0565b61384e6101208301846136e0565b9b9a5050505050505050505050565b60006020828403121561387357613872613368565b5b6000613881848285016135be565b91505092915050565b613893816133f7565b811461389e57600080fd5b50565b6000813590506138b08161388a565b92915050565b600080604083850312156138cd576138cc613368565b5b60006138db858286016135be565b92505060206138ec858286016138a1565b9150509250929050565b600080fd5b600080fd5b7f4e487b7100000000000000000000000000000000000000000000000000000000600052604160045260246000fd5b6139388261347c565b810181811067ffffffffffffffff8211171561395757613956613900565b5b80604052505050565b600061396a61335e565b9050613976828261392f565b919050565b600067ffffffffffffffff82111561399657613995613900565b5b61399f8261347c565b9050602081019050919050565b82818337600083830152505050565b60006139ce6139c98461397b565b613960565b9050828152602081018484840111156139ea576139e96138fb565b5b6139f58482856139ac565b509392505050565b600082601f830112613a1257613a116138f6565b5b8135613a228482602086016139bb565b91505092915050565b60008060008060808587031215613a4557613a44613368565b5b6000613a53878288016135be565b9450506020613a64878288016135be565b9350506040613a7587828801613509565b925050606085013567ffffffffffffffff811115613a9657613a9561336d565b5b613aa2878288016139fd565b91505092959194509250565b60028110613abf57613abe61374a565b5b50565b6000819050613ad082613aae565b919050565b6000613ae082613ac2565b9050919050565b613af081613ad5565b82525050565b6000608082019050613b0b60008301876136e0565b613b1860208301866136e0565b613b2560408301856136e0565b613b326060830184613ae7565b95945050505050565b60008060408385031215613b5257613b51613368565b5b6000613b60858286016135be565b9250506020613b71858286016135be565b9150509250929050565b7f4e487b7100000000000000000000000000000000000000000000000000000000600052602260045260246000fd5b60006002820490506001821680613bc257607f821691505b60208210811415613bd657613bd5613b7b565b5b50919050565b7f4552433732313a20617070726f76656420717565727920666f72206e6f6e657860008201527f697374656e7420746f6b656e0000000000000000000000000000000000000000602082015250565b6000613c38602c83613438565b9150613c4382613bdc565b604082019050919050565b60006020820190508181036000830152613c6781613c2b565b9050919050565b7f4552433732313a20617070726f76616c20746f2063757272656e74206f776e6560008201527f7200000000000000000000000000000000000000000000000000000000000000602082015250565b6000613cca602183613438565b9150613cd582613c6e565b604082019050919050565b60006020820190508181036000830152613cf981613cbd565b9050919050565b7f4552433732313a20617070726f76652063616c6c6572206973206e6f74206f7760008201527f6e6572206e6f7220617070726f76656420666f7220616c6c0000000000000000602082015250565b6000613d5c603883613438565b9150613d6782613d00565b604082019050919050565b60006020820190508181036000830152613d8b81613d4f565b9050919050565b7f4552433732313a207472616e736665722063616c6c6572206973206e6f74206f60008201527f776e6572206e6f7220617070726f766564000000000000000000000000000000602082015250565b6000613dee603183613438565b9150613df982613d92565b604082019050919050565b60006020820190508181036000830152613e1d81613de1565b9050919050565b7f4e487b7100000000000000000000000000000000000000000000000000000000600052601160045260246000fd5b6000613e5e826134e8565b9150613e69836134e8565b9250817fffffffffffffffffffffffffffffffffffffffffffffffffffffffffffffffff0483118215151615613ea257613ea1613e24565b5b828202905092915050565b6000604082019050613ec2600083018561357d565b613ecf602083018461357d565b9392505050565b600081519050613ee5816134f2565b92915050565b600060208284031215613f0157613f00613368565b5b6000613f0f84828501613ed6565b91505092915050565b7f496e76616c696420416d6f756e74000000000000000000000000000000000000600082015250565b6000613f4e600e83613438565b9150613f5982613f18565b602082019050919050565b60006020820190508181036000830152613f7d81613f41565b9050919050565b6000606082019050613f99600083018661357d565b613fa6602083018561357d565b613fb360408301846136e0565b949350505050565b600081519050613fca8161388a565b92915050565b600060208284031215613fe657613fe5613368565b5b6000613ff484828501613fbb565b91505092915050565b600060a082019050614012600083018861357d565b61401f60208301876136e0565b61402c60408301866136e0565b61403960608301856136e0565b6140466080830184613ae7565b9695505050505050565b7f496e76616c696420616d6f756e74202100000000000000000000000000000000600082015250565b6000614086601083613438565b915061409182614050565b602082019050919050565b600060208201905081810360008301526140b581614079565b9050919050565b7f496e76616c6964206f776e657220210000000000000000000000000000000000600082015250565b60006140f2600f83613438565b91506140fd826140bc565b602082019050919050565b60006020820190508181036000830152614121816140e5565b9050919050565b7f4e487b7100000000000000000000000000000000000000000000000000000000600052603260045260246000fd5b7f596f757220637261622069732062757379206e6f772021000000000000000000600082015250565b600061418d601783613438565b915061419882614157565b602082019050919050565b600060208201905081810360008301526141bc81614180565b9050919050565b60006080820190506141d8600083018761357d565b6141e560208301866136e0565b6141f260408301856136e0565b6141ff6060830184613ae7565b95945050505050565b6000819050919050565b600061422d61422861422384614208565b613666565b6134e8565b9050919050565b61423d81614212565b82525050565b600061014082019050614259600083018d6136e0565b614266602083018c6136e0565b614273604083018b61357d565b614280606083018a6136e0565b61428d608083018961357d565b61429a60a0830188614234565b6142a760c0830187614234565b6142b460e08301866137b2565b6142c26101008301856136e0565b6142d0610120830184614234565b9b9a5050505050505050505050565b7f43616e6e6f74206669676874207468697320626174746c652c20706c6561736560008201527f207265636f6e6669726d20210000000000000000000000000000000000000000602082015250565b600061433b602c83613438565b9150614346826142df565b604082019050919050565b6000602082019050818103600083015261436a8161432e565b9050919050565b600061437c826134e8565b9150614387836134e8565b92508282101561439a57614399613e24565b5b828203905092915050565b60006143b0826134e8565b91506143bb836134e8565b9250827fffffffffffffffffffffffffffffffffffffffffffffffffffffffffffffffff038211156143f0576143ef613e24565b5b828201905092915050565b6000604082019050614410600083018561357d565b61441d60208301846136e0565b9392505050565b60006101208201905061443a600083018c6136e0565b614447602083018b61357d565b614454604083018a6136e0565b614461606083018961357d565b61446e60808301886136e0565b61447b60a08301876136e0565b61448860c08301866137b2565b61449560e08301856136e0565b6144a36101008301846136e0565b9a9950505050505050505050565b7f4552433732313a206f776e657220717565727920666f72206e6f6e657869737460008201527f656e7420746f6b656e0000000000000000000000000000000000000000000000602082015250565b600061450d602983613438565b9150614518826144b1565b604082019050919050565b6000602082019050818103600083015261453c81614500565b9050919050565b7f4552433732313a2062616c616e636520717565727920666f7220746865207a6560008201527f726f206164647265737300000000000000000000000000000000000000000000602082015250565b600061459f602a83613438565b91506145aa82614543565b604082019050919050565b600060208201905081810360008301526145ce81614592565b9050919050565b7f426174746c65206d6179626520616c726561647920737461727465642c20706c60008201527f65617365207265636f6e6669726d202100000000000000000000000000000000602082015250565b6000614631603083613438565b915061463c826145d5565b604082019050919050565b6000602082019050818103600083015261466081614624565b9050919050565b60006101208201905061467d600083018c6136e0565b61468a602083018b61357d565b614697604083018a6136e0565b6146a4606083018961357d565b6146b160808301886136e0565b6146be60a0830187614234565b6146cb60c08301866137b2565b6146d860e08301856136e0565b6146e6610100830184614234565b9a9950505050505050505050565b6000819050919050565b61470f61470a826134e8565b6146f4565b82525050565b6000819050919050565b6000819050919050565b61473a61473582614715565b61471f565b82525050565b600061474c82876146fe565b60208201915061475c8286614729565b60208201915061476c82856146fe565b60208201915061477c82846146fe565b60208201915081905095945050505050565b7f4e487b7100000000000000000000000000000000000000000000000000000000600052601260045260246000fd5b60006147c8826134e8565b91506147d3836134e8565b9250826147e3576147e261478e565b5b828206905092915050565b7f4552433732314d657461646174613a2055524920717565727920666f72206e6f60008201527f6e6578697374656e7420746f6b656e0000000000000000000000000000000000602082015250565b600061484a602f83613438565b9150614855826147ee565b604082019050919050565b600060208201905081810360008301526148798161483d565b9050919050565b600081905092915050565b60006148968261342d565b6148a08185614880565b93506148b0818560208601613449565b80840191505092915050565b60006148c8828561488b565b91506148d4828461488b565b91508190509392505050565b7f4552433732313a206f70657261746f7220717565727920666f72206e6f6e657860008201527f697374656e7420746f6b656e0000000000000000000000000000000000000000602082015250565b600061493c602c83613438565b9150614947826148e0565b604082019050919050565b6000602082019050818103600083015261496b8161492f565b9050919050565b7f4552433732313a207472616e73666572206f6620746f6b656e2074686174206960008201527f73206e6f74206f776e0000000000000000000000000000000000000000000000602082015250565b60006149ce602983613438565b91506149d982614972565b604082019050919050565b600060208201905081810360008301526149fd816149c1565b9050919050565b7f4552433732313a207472616e7366657220746f20746865207a65726f2061646460008201527f7265737300000000000000000000000000000000000000000000000000000000602082015250565b6000614a60602483613438565b9150614a6b82614a04565b604082019050919050565b60006020820190508181036000830152614a8f81614a53565b9050919050565b7f4552433732313a206d696e7420746f20746865207a65726f2061646472657373600082015250565b6000614acc602083613438565b9150614ad782614a96565b602082019050919050565b60006020820190508181036000830152614afb81614abf565b9050919050565b7f4552433732313a20746f6b656e20616c7265616479206d696e74656400000000600082015250565b6000614b38601c83613438565b9150614b4382614b02565b602082019050919050565b60006020820190508181036000830152614b6781614b2b565b9050919050565b7f4552433732313a20617070726f766520746f2063616c6c657200000000000000600082015250565b6000614ba4601983613438565b9150614baf82614b6e565b602082019050919050565b60006020820190508181036000830152614bd381614b97565b9050919050565b7f4552433732313a207472616e7366657220746f206e6f6e20455243373231526560008201527f63656976657220696d706c656d656e7465720000000000000000000000000000602082015250565b6000614c36603283613438565b9150614c4182614bda565b604082019050919050565b60006020820190508181036000830152614c6581614c29565b9050919050565b6000614c77826134e8565b91507fffffffffffffffffffffffffffffffffffffffffffffffffffffffffffffffff821415614caa57614ca9613e24565b5b600182019050919050565b6000614cc0826134e8565b9150614ccb836134e8565b925082614cdb57614cda61478e565b5b828204905092915050565b600081519050919050565b600082825260208201905092915050565b6000614d0d82614ce6565b614d178185614cf1565b9350614d27818560208601613449565b614d308161347c565b840191505092915050565b6000608082019050614d50600083018761357d565b614d5d602083018661357d565b614d6a60408301856136e0565b8181036060830152614d7c8184614d02565b905095945050505050565b600081519050614d968161339e565b92915050565b600060208284031215614db257614db1613368565b5b6000614dc084828501614d87565b9150509291505056fea264697066735822122081aa552304ae179c40068b1b833927c7bc0b5192841bf8ef28f76f66c29c3dd964736f6c634300080b0033",
  "immutableReferences": {},
  "source": "// SPDX-License-Identifier: MIT\npragma solidity ^0.8.3;\n\n//import \"https://github.com/OpenZeppelin/openzeppelin-contracts/blob/master/contracts/token/ERC20/IERC20.sol\";\n//import \"./IERC20.sol\";\n//import \"./ERC20Basic.sol\";\nimport \"@openzeppelin/contracts/token/ERC721/ERC721.sol\";\nimport \"@openzeppelin/contracts/token/ERC20/IERC20.sol\";\nimport \"@openzeppelin/contracts/token/ERC20/ERC20.sol\";\n\ncontract SimpleCrabGame is ERC721 {\n\n    //// **** PARAMETER DEFINITION\n    enum BattleState { Waiting, Fighting, Ended }\n    enum CrabState { Free, Busy }\n\n    // Crab info\n    struct Crab {\n        uint256 crabID;                     // CrabID\n        uint256 strength;                   // Crab Strength\n        uint256 kind;                       // Crab Type (010)\n        CrabState state;                    // Crab State\n    }\n\n    // Crab info\n    struct Battle {\n        uint256 battleID;                   // Battle ID\n        uint256 battleAmount;               // ERC20 token must pay for this game if lose\n        address p1Adress;                   // Crab1 of owner address\n        uint256 p1CrabID;                   // Crab1 ID\n        address p2Adress;                   // Crab2 of owner address\n        uint256 p2CrabID;                   // Crab2 ID\n        uint256 winerCrabID;                // Winner crabID\n        BattleState battleStatus;           // Battle status (Waiting, Fighting, Ended)\n        uint256 battleStartTime;            // Starttime of battle\n        uint256 battleEndTime;              // Endtime of battle\n    }\n\n    ERC20 public erc20TokenInfo;\n    Crab[] public crabs;\n    Battle[] public battles;\n\n    //  Random use\n    uint private winBattleCnt;\n    uint private loseBattleCnt;\n\tuint public tokenDecimals = 10 ** 18;\n\n    // **** EVENT DEFINITION\n    // eventType (1001 : NewCrab, 1002: UpdateCrab, 1003: NewBattle, 1004: UpdateBatte)\n    event NewCrab(uint256 indexed eventType, address owner, uint256 crabID, uint256 kind, uint256 strength, CrabState state);\n    event UpdateCrab(uint256 indexed eventType, address owner, uint256 crabID, uint256 strength, CrabState state);\n    event NewBattle(uint256 indexed eventType, uint256 _battleID, uint256 _battleAmount, address _p1Adress, uint256 _p1CrabID, address _p2Adress, uint256 _p2CrabID, uint256 _winerCrabID, BattleState _battleStatus, uint256 _battleStartTime, uint256 _battleEndTime);\n    event UpdateBattle(uint256 indexed eventType, uint256 _battleID, address _p1Adress, uint256 _p1CrabID, address _p2Adress, uint256 _p2CrabID, uint256 _winerCrabID, BattleState _battleStatus, uint256 _battleStartTime, uint256 _battleEndTime);\n\n    // **** CONTRACT METHOD\n    // constructor\n    constructor (address _tokenAddress) ERC721(\"CrabInfo Management Token\", \"SCG721\") {\n        winBattleCnt = 0;\n        loseBattleCnt = 0;\n        erc20TokenInfo = ERC20(_tokenAddress);\n    }\n\n    // User pay ERC20 token for mint crab, default 1 ERC20 token = 1 Crab\n    function mintCrab() public {\n        require(erc20TokenInfo.allowance(msg.sender, address(this)) >= 1 * tokenDecimals, 'Invalid Amount');\n        // should burn this token\n        erc20TokenInfo.transferFrom(msg.sender, address(this), 1 * tokenDecimals);\n\n        // crab strenth 0 - 30 random\n        // crab kind 0 - 10 random\n        uint256 _id = crabs.length;\n        uint256 _strength = randomMax(30);\n        uint256 _kind = randomMax(10);\n        crabs.push(Crab(_id, _strength, _kind, CrabState.Free));\n        _mint(msg.sender, _id);\n\n        emit NewCrab(1001, msg.sender, _id, _kind, _strength, CrabState.Free);\n    }\n\n    // Start new battle\n    function startBattle(uint256 _p1CrabID, uint256 _battleAmount) public {\n        // balance allowance check\n        require(erc20TokenInfo.allowance(msg.sender, address(this)) >= _battleAmount * tokenDecimals, 'Invalid amount !');\n        erc20TokenInfo.transferFrom(msg.sender, address(this), _battleAmount * tokenDecimals);\n\n        // crab owner, crab state check\n        require(ownerOf(_p1CrabID) == msg.sender, 'Invalid owner !');\n        require(crabs[_p1CrabID].state != CrabState.Busy, 'Your crab is busy now !');\n\n        // take crab to busy\n        crabs[_p1CrabID].state = CrabState.Busy;\n        emit UpdateCrab(1002, msg.sender, _p1CrabID, crabs[_p1CrabID].strength, CrabState.Busy);\n\n        // start new battle\n        uint256 _battleID = battles.length;\n        battles.push(Battle(\n            _battleID,                  // Battle ID\n            _battleAmount,              // ERC20 token must pay for this game if lose\n            msg.sender,                 // Crab1 of owner address\n            _p1CrabID,                  // Crab1 ID\n            address(0),                 // Crab2 of owner address\n            0,                          // Crab2 ID\n            0,                          // Winner crabID\n            BattleState.Waiting,        // Battle status (Waiting, Fighting, Ended)\n            block.timestamp,            // Starttime of battle\n            0                           // Endtime of battle\n        ));\n\n        emit NewBattle (\n             1003,                      // eventType\n            _battleID,                  // Battle ID (start from 1)\n            _battleAmount,              // ERC20 token must pay for this game if lose\n            msg.sender,                 // Crab1 of owner address\n            _p1CrabID,                  // Crab1 ID\n            address(0),                 // Crab2 of owner address\n            0,                          // Crab2 ID\n            0,                          // Winner crabID\n            BattleState.Waiting,                        // Battle status (Waiting, Fighting, Ended)\n            battles[_battleID].battleStartTime,         // Starttime of battle\n            0                                           // Endtime of battle\n        );\n    }\n\n    // Accept battle\n    function acceptBattle(uint256 _p2CrabID, uint256 _battleID) public {\n        // balance allowance check\n        require(erc20TokenInfo.allowance(msg.sender, address(this)) >= battles[_battleID].battleAmount * tokenDecimals, 'Invalid amount !');\n        erc20TokenInfo.transferFrom(msg.sender, address(this), battles[_battleID].battleAmount * tokenDecimals);\n\n        // crab owner, crab state check\n        require(ownerOf(_p2CrabID) == msg.sender, 'Invalid owner !');\n        require(crabs[_p2CrabID].state != CrabState.Busy, 'Your crab is busy now !');\n\n        // take crab to busy\n        crabs[_p2CrabID].state = CrabState.Busy;\n        emit UpdateCrab(1002, msg.sender, _p2CrabID, crabs[_p2CrabID].strength, CrabState.Busy);\n\n        // check battle status\n        require(battles[_battleID].battleStatus == BattleState.Waiting, 'Battle maybe already started, please reconfirm !');\n\n        // update battle info\n        battles[_battleID].battleStatus     = BattleState.Fighting;\n        battles[_battleID].p2CrabID         = _p2CrabID;\n        battles[_battleID].p2Adress         = msg.sender;\n\n        emit UpdateBattle (\n            1004,                               // eventType\n            _battleID,                          // Battle ID (start from 1)\n            battles[_battleID].p1Adress,        // Crab1 of owner address\n            battles[_battleID].p1CrabID,        // Crab1 ID\n            msg.sender,                         // Crab2 of owner address\n            _p2CrabID,                          // Crab2 ID\n            0,                                  // Winner crabID\n            BattleState.Fighting,               // Battle status (Waiting, Fighting, Ended)\n            battles[_battleID].battleStartTime, // Starttime of battle\n            0                                   // Endtime of battle\n        );\n\n        // fighting\n        endBattle(_battleID); \n    }\n\n    // Let 2 crab fight\n    function endBattle(uint256 _battleID) public {\n        // check battle status\n        require(battles[_battleID].battleStatus == BattleState.Fighting, 'Cannot fight this battle, please reconfirm !');\n        battles[_battleID].battleStatus = BattleState.Ended;\n\n        // calculate strength\n        uint256 _crab1Strength  = crabs[battles[_battleID].p1CrabID].strength;\n        uint256 _crab2Strength  = crabs[battles[_battleID].p2CrabID].strength;\n        uint256 _diffStrength   = _crab1Strength >= _crab2Strength ? _crab1Strength - _crab2Strength : _crab2Strength - _crab1Strength;\n        uint256 _p1RandomStrength = 0;\n\t\tif (_diffStrength > 0) {\n\t\t\t_p1RandomStrength = randomMax(_diffStrength * 2);\n\t\t}\n\n\t\t// p1Win\n        if ((_crab1Strength + _p1RandomStrength) > (_crab2Strength + _diffStrength - _p1RandomStrength)) {\n            battles[_battleID].winerCrabID = battles[_battleID].p1CrabID;\n            winBattleCnt = winBattleCnt + 1;\n\n            // crab1 stronger\n            if (_crab1Strength >= _crab2Strength) {\n                crabs[battles[_battleID].p1CrabID].strength = crabs[battles[_battleID].p1CrabID].strength + 1;\n            \n            // crab2 stronger\n            } else {\n                crabs[battles[_battleID].p1CrabID].strength = crabs[battles[_battleID].p1CrabID].strength + 2;\n            }\n\n            // transfer erc20 token\n            erc20TokenInfo.transfer(battles[_battleID].p1Adress, battles[_battleID].battleAmount * tokenDecimals * 2);\n\n        // p2Win\n        } else {\n            battles[_battleID].winerCrabID = battles[_battleID].p2CrabID;\n            loseBattleCnt = loseBattleCnt + 1;\n\n            // crab1 stronger\n            if (_crab1Strength >= _crab2Strength) {\n                crabs[battles[_battleID].p2CrabID].strength = crabs[battles[_battleID].p2CrabID].strength + 2;\n            \n            // crab2 stronger\n            } else {\n                crabs[battles[_battleID].p2CrabID].strength = crabs[battles[_battleID].p2CrabID].strength + 1;\n            }\n\n            // transfer erc20 token\n            erc20TokenInfo.transfer(battles[_battleID].p2Adress, battles[_battleID].battleAmount * tokenDecimals * 2);\n        }\n\n        // endgame info update\n        battles[_battleID].battleEndTime = block.timestamp;\n        crabs[battles[_battleID].p1CrabID].state = CrabState.Free;\n        crabs[battles[_battleID].p2CrabID].state = CrabState.Free;\n        emit UpdateCrab(1002, battles[_battleID].p1Adress, battles[_battleID].p1CrabID, crabs[battles[_battleID].p1CrabID].strength, CrabState.Free);\n        emit UpdateCrab(1002, battles[_battleID].p2Adress, battles[_battleID].p2CrabID, crabs[battles[_battleID].p2CrabID].strength, CrabState.Free);\n\n        emit UpdateBattle (\n            1004,                                   // eventType\n            _battleID,                              // Battle ID (start from 1)\n            battles[_battleID].p1Adress,            // Crab1 of owner address\n            battles[_battleID].p1CrabID,            // Crab1 ID\n            battles[_battleID].p2Adress,            // Crab2 of owner address\n            battles[_battleID].p2CrabID,            // Crab2 ID\n            battles[_battleID].winerCrabID,         // Winner crabID\n            BattleState.Ended,                      // Battle status (Waiting, Fighting, Ended)\n            battles[_battleID].battleStartTime,     // Starttime of battle\n            battles[_battleID].battleEndTime        // Endtime of battle\n        );\n    }\n\n    // **** UTILITY METHOD\n    // Random uint numer\n    function randomMax(uint _max) public view returns (uint256) {\n        return uint256(keccak256(abi.encodePacked(block.timestamp, blockhash(block.number - 1), winBattleCnt, loseBattleCnt))) % _max;\n    }\n}\n",
  "sourcePath": "/Users/nguyenpham/Documents/Projects/DApp/simplecrab/contracts/SimpleCrabGame.sol",
  "compiler": {
    "name": "solc",
    "version": "0.8.11+commit.d7f03943.Emscripten.clang"
  },
  "schemaVersion": "3.4.3",
  "updatedAt": "2021-12-20T15:49:25.193Z",
  "networkType": "ethereum",
  "devdoc": {
    "kind": "dev",
    "methods": {
      "approve(address,uint256)": {
        "details": "See {IERC721-approve}."
      },
      "balanceOf(address)": {
        "details": "See {IERC721-balanceOf}."
      },
      "getApproved(uint256)": {
        "details": "See {IERC721-getApproved}."
      },
      "isApprovedForAll(address,address)": {
        "details": "See {IERC721-isApprovedForAll}."
      },
      "name()": {
        "details": "See {IERC721Metadata-name}."
      },
      "ownerOf(uint256)": {
        "details": "See {IERC721-ownerOf}."
      },
      "safeTransferFrom(address,address,uint256)": {
        "details": "See {IERC721-safeTransferFrom}."
      },
      "safeTransferFrom(address,address,uint256,bytes)": {
        "details": "See {IERC721-safeTransferFrom}."
      },
      "setApprovalForAll(address,bool)": {
        "details": "See {IERC721-setApprovalForAll}."
      },
      "supportsInterface(bytes4)": {
        "details": "See {IERC165-supportsInterface}."
      },
      "symbol()": {
        "details": "See {IERC721Metadata-symbol}."
      },
      "tokenURI(uint256)": {
        "details": "See {IERC721Metadata-tokenURI}."
      },
      "transferFrom(address,address,uint256)": {
        "details": "See {IERC721-transferFrom}."
      }
    },
    "version": 1
  },
  "userdoc": {
    "kind": "user",
    "methods": {},
    "version": 1
  }
}